{
  "_format": "hh-sol-artifact-1",
  "contractName": "Voting",
  "sourceName": "contracts/Voting.sol",
  "abi": [
    {
      "inputs": [
        {
          "internalType": "string[]",
          "name": "_candidateNames",
          "type": "string[]"
        },
        {
          "internalType": "uint256",
          "name": "_durationMinutes",
          "type": "uint256"
        }
      ],
      "stateMutability": "nonpayable",
      "type": "constructor"
    },
    {
      "inputs": [
        {
          "internalType": "string",
          "name": "_name",
          "type": "string"
        }
      ],
      "name": "addCandidate",
      "outputs": [],
      "stateMutability": "nonpayable",
      "type": "function"
    },
    {
      "inputs": [
        {
          "internalType": "uint256",
          "name": "",
          "type": "uint256"
        }
      ],
      "name": "candidates",
      "outputs": [
        {
          "internalType": "string",
          "name": "name",
          "type": "string"
        },
        {
          "internalType": "uint256",
          "name": "voteCount",
          "type": "uint256"
        }
      ],
      "stateMutability": "view",
      "type": "function"
    },
    {
      "inputs": [],
      "name": "getAllVotesOfCandidates",
      "outputs": [
        {
          "components": [
            {
              "internalType": "string",
              "name": "name",
              "type": "string"
            },
            {
              "internalType": "uint256",
              "name": "voteCount",
              "type": "uint256"
            }
          ],
          "internalType": "struct Voting.Candidate[]",
          "name": "",
          "type": "tuple[]"
        }
      ],
      "stateMutability": "view",
      "type": "function"
    },
    {
      "inputs": [],
      "name": "getRemainingTime",
      "outputs": [
        {
          "internalType": "uint256",
          "name": "",
          "type": "uint256"
        }
      ],
      "stateMutability": "view",
      "type": "function"
    },
    {
      "inputs": [],
      "name": "getVotingStatus",
      "outputs": [
        {
          "internalType": "bool",
          "name": "",
          "type": "bool"
        }
      ],
      "stateMutability": "view",
      "type": "function"
    },
    {
      "inputs": [
        {
          "internalType": "uint256",
          "name": "_candidateIndex",
          "type": "uint256"
        }
      ],
      "name": "vote",
      "outputs": [],
      "stateMutability": "nonpayable",
      "type": "function"
    },
    {
      "inputs": [
        {
          "internalType": "address",
          "name": "",
          "type": "address"
        }
      ],
      "name": "voters",
      "outputs": [
        {
          "internalType": "bool",
          "name": "",
          "type": "bool"
        }
      ],
      "stateMutability": "view",
      "type": "function"
    },
    {
      "inputs": [],
      "name": "votingEnd",
      "outputs": [
        {
          "internalType": "uint256",
          "name": "",
          "type": "uint256"
        }
      ],
      "stateMutability": "view",
      "type": "function"
    },
    {
      "inputs": [],
      "name": "votingStart",
      "outputs": [
        {
          "internalType": "uint256",
          "name": "",
          "type": "uint256"
        }
      ],
      "stateMutability": "view",
      "type": "function"
    }
  ],
  "bytecode": "0x60806040523480156200001157600080fd5b506040516200193438038062001934833981810160405281019062000037919062000413565b60005b8251811015620000d4576000604051806040016040528085848151811062000067576200006662000479565b5b60200260200101518152602001600081525090806001815401808255809150506001900390600052602060002090600202016000909190919091506000820151816000019081620000b99190620006e9565b5060208201518160010155505080806001019150506200003a565b5033600160006101000a81548173ffffffffffffffffffffffffffffffffffffffff021916908373ffffffffffffffffffffffffffffffffffffffff16021790555042600381905550603c816200012c9190620007ff565b6003546200013b91906200084a565b600481905550505062000885565b6000604051905090565b600080fd5b600080fd5b600080fd5b6000601f19601f8301169050919050565b7f4e487b7100000000000000000000000000000000000000000000000000000000600052604160045260246000fd5b620001ad8262000162565b810181811067ffffffffffffffff82111715620001cf57620001ce62000173565b5b80604052505050565b6000620001e462000149565b9050620001f28282620001a2565b919050565b600067ffffffffffffffff82111562000215576200021462000173565b5b602082029050602081019050919050565b600080fd5b600080fd5b600067ffffffffffffffff8211156200024e576200024d62000173565b5b620002598262000162565b9050602081019050919050565b60005b838110156200028657808201518184015260208101905062000269565b60008484015250505050565b6000620002a9620002a38462000230565b620001d8565b905082815260208101848484011115620002c857620002c76200022b565b5b620002d584828562000266565b509392505050565b600082601f830112620002f557620002f46200015d565b5b81516200030784826020860162000292565b91505092915050565b6000620003276200032184620001f7565b620001d8565b905080838252602082019050602084028301858111156200034d576200034c62000226565b5b835b818110156200039b57805167ffffffffffffffff8111156200037657620003756200015d565b5b808601620003858982620002dd565b855260208501945050506020810190506200034f565b5050509392505050565b600082601f830112620003bd57620003bc6200015d565b5b8151620003cf84826020860162000310565b91505092915050565b6000819050919050565b620003ed81620003d8565b8114620003f957600080fd5b50565b6000815190506200040d81620003e2565b92915050565b600080604083850312156200042d576200042c62000153565b5b600083015167ffffffffffffffff8111156200044e576200044d62000158565b5b6200045c85828601620003a5565b92505060206200046f85828601620003fc565b9150509250929050565b7f4e487b7100000000000000000000000000000000000000000000000000000000600052603260045260246000fd5b600081519050919050565b7f4e487b7100000000000000000000000000000000000000000000000000000000600052602260045260246000fd5b60006002820490506001821680620004fb57607f821691505b602082108103620005115762000510620004b3565b5b50919050565b60008190508160005260206000209050919050565b60006020601f8301049050919050565b600082821b905092915050565b6000600883026200057b7fffffffffffffffffffffffffffffffffffffffffffffffffffffffffffffffff826200053c565b6200058786836200053c565b95508019841693508086168417925050509392505050565b6000819050919050565b6000620005ca620005c4620005be84620003d8565b6200059f565b620003d8565b9050919050565b6000819050919050565b620005e683620005a9565b620005fe620005f582620005d1565b84845462000549565b825550505050565b600090565b6200061562000606565b62000622818484620005db565b505050565b5b818110156200064a576200063e6000826200060b565b60018101905062000628565b5050565b601f8211156200069957620006638162000517565b6200066e846200052c565b810160208510156200067e578190505b620006966200068d856200052c565b83018262000627565b50505b505050565b600082821c905092915050565b6000620006be600019846008026200069e565b1980831691505092915050565b6000620006d98383620006ab565b9150826002028217905092915050565b620006f482620004a8565b67ffffffffffffffff81111562000710576200070f62000173565b5b6200071c8254620004e2565b620007298282856200064e565b600060209050601f8311600181146200076157600084156200074c578287015190505b620007588582620006cb565b865550620007c8565b601f198416620007718662000517565b60005b828110156200079b5784890151825560018201915060208501945060208101905062000774565b86831015620007bb5784890151620007b7601f891682620006ab565b8355505b6001600288020188555050505b505050505050565b7f4e487b7100000000000000000000000000000000000000000000000000000000600052601160045260246000fd5b60006200080c82620003d8565b91506200081983620003d8565b92508282026200082981620003d8565b91508282048414831517620008435762000842620007d0565b5b5092915050565b60006200085782620003d8565b91506200086483620003d8565b92508282019050808211156200087f576200087e620007d0565b5b92915050565b61109f80620008956000396000f3fe608060405234801561001057600080fd5b50600436106100935760003560e01c8063581c281c11610066578063581c281c1461011f57806385a386351461013d57806390a9ab901461015b578063a3ec138d14610179578063efb98bcf146101a957610093565b80630121b93f14610098578063101158af146100b45780633477ee2e146100d2578063462e91ec14610103575b600080fd5b6100b260048036038101906100ad919061069d565b6101c7565b005b6100bc610329565b6040516100c991906106d9565b60405180910390f35b6100ec60048036038101906100e7919061069d565b61032f565b6040516100fa929190610784565b60405180910390f35b61011d600480360381019061011891906108e9565b6103eb565b005b6101276104ab565b604051610134919061094d565b60405180910390f35b6101456104c5565b60405161015291906106d9565b60405180910390f35b6101636104cb565b6040516101709190610ac0565b60405180910390f35b610193600480360381019061018e9190610b40565b6105c6565b6040516101a0919061094d565b60405180910390f35b6101b16105e6565b6040516101be91906106d9565b60405180910390f35b600260003373ffffffffffffffffffffffffffffffffffffffff1673ffffffffffffffffffffffffffffffffffffffff16815260200190815260200160002060009054906101000a900460ff1615610254576040517f08c379a000000000000000000000000000000000000000000000000000000000815260040161024b90610bb9565b60405180910390fd5b600080549050811061029b576040517f08c379a000000000000000000000000000000000000000000000000000000000815260040161029290610c25565b60405180910390fd5b600081815481106102af576102ae610c45565b5b906000526020600020906002020160010160008154809291906102d190610ca3565b919050555060011515600260003373ffffffffffffffffffffffffffffffffffffffff1673ffffffffffffffffffffffffffffffffffffffff16815260200190815260200160002060009054906101000a9050505050565b60035481565b6000818154811061033f57600080fd5b906000526020600020906002020160009150905080600001805461036290610d1a565b80601f016020809104026020016040519081016040528092919081815260200182805461038e90610d1a565b80156103db5780601f106103b0576101008083540402835291602001916103db565b820191906000526020600020905b8154815290600101906020018083116103be57829003601f168201915b5050505050908060010154905082565b600160009054906101000a900473ffffffffffffffffffffffffffffffffffffffff1673ffffffffffffffffffffffffffffffffffffffff163373ffffffffffffffffffffffffffffffffffffffff161461044557600080fd5b6000604051806040016040528083815260200160008152509080600181540180825580915050600190039060005260206000209060020201600090919091909150600082015181600001908161049b9190610ef7565b5060208201518160010155505050565b600060035442101580156104c0575060045442105b905090565b60045481565b60606000805480602002602001604051908101604052809291908181526020016000905b828210156105bd578382906000526020600020906002020160405180604001604052908160008201805461052290610d1a565b80601f016020809104026020016040519081016040528092919081815260200182805461054e90610d1a565b801561059b5780601f106105705761010080835404028352916020019161059b565b820191906000526020600020905b81548152906001019060200180831161057e57829003601f168201915b50505050508152602001600182015481525050815260200190600101906104ef565b50505050905090565b60026020528060005260406000206000915054906101000a900460ff1681565b600060035442101561062d576040517f08c379a000000000000000000000000000000000000000000000000000000000815260040161062490611015565b60405180910390fd5b600454421061063f5760009050610650565b4260045461064d9190611035565b90505b90565b6000604051905090565b600080fd5b600080fd5b6000819050919050565b61067a81610667565b811461068557600080fd5b50565b60008135905061069781610671565b92915050565b6000602082840312156106b3576106b261065d565b5b60006106c184828501610688565b91505092915050565b6106d381610667565b82525050565b60006020820190506106ee60008301846106ca565b92915050565b600081519050919050565b600082825260208201905092915050565b60005b8381101561072e578082015181840152602081019050610713565b60008484015250505050565b6000601f19601f8301169050919050565b6000610756826106f4565b61076081856106ff565b9350610770818560208601610710565b6107798161073a565b840191505092915050565b6000604082019050818103600083015261079e818561074b565b90506107ad60208301846106ca565b9392505050565b600080fd5b600080fd5b7f4e487b7100000000000000000000000000000000000000000000000000000000600052604160045260246000fd5b6107f68261073a565b810181811067ffffffffffffffff82111715610815576108146107be565b5b80604052505050565b6000610828610653565b905061083482826107ed565b919050565b600067ffffffffffffffff821115610854576108536107be565b5b61085d8261073a565b9050602081019050919050565b82818337600083830152505050565b600061088c61088784610839565b61081e565b9050828152602081018484840111156108a8576108a76107b9565b5b6108b384828561086a565b509392505050565b600082601f8301126108d0576108cf6107b4565b5b81356108e0848260208601610879565b91505092915050565b6000602082840312156108ff576108fe61065d565b5b600082013567ffffffffffffffff81111561091d5761091c610662565b5b610929848285016108bb565b91505092915050565b60008115159050919050565b61094781610932565b82525050565b6000602082019050610962600083018461093e565b92915050565b600081519050919050565b600082825260208201905092915050565b6000819050602082019050919050565b600082825260208201905092915050565b60006109b0826106f4565b6109ba8185610994565b93506109ca818560208601610710565b6109d38161073a565b840191505092915050565b6109e781610667565b82525050565b60006040830160008301518482036000860152610a0a82826109a5565b9150506020830151610a1f60208601826109de565b508091505092915050565b6000610a3683836109ed565b905092915050565b6000602082019050919050565b6000610a5682610968565b610a608185610973565b935083602082028501610a7285610984565b8060005b85811015610aae5784840389528151610a8f8582610a2a565b9450610a9a83610a3e565b925060208a01995050600181019050610a76565b50829750879550505050505092915050565b60006020820190508181036000830152610ada8184610a4b565b905092915050565b600073ffffffffffffffffffffffffffffffffffffffff82169050919050565b6000610b0d82610ae2565b9050919050565b610b1d81610b02565b8114610b2857600080fd5b50565b600081359050610b3a81610b14565b92915050565b600060208284031215610b5657610b5561065d565b5b6000610b6484828501610b2b565b91505092915050565b7f596f75206861766520616c726561647920766f74656421212100000000000000600082015250565b6000610ba36019836106ff565b9150610bae82610b6d565b602082019050919050565b60006020820190508181036000830152610bd281610b96565b9050919050565b7f43616e64696461746520646f6573206e6f742065786973740000000000000000600082015250565b6000610c0f6018836106ff565b9150610c1a82610bd9565b602082019050919050565b60006020820190508181036000830152610c3e81610c02565b9050919050565b7f4e487b7100000000000000000000000000000000000000000000000000000000600052603260045260246000fd5b7f4e487b7100000000000000000000000000000000000000000000000000000000600052601160045260246000fd5b6000610cae82610667565b91507fffffffffffffffffffffffffffffffffffffffffffffffffffffffffffffffff8203610ce057610cdf610c74565b5b600182019050919050565b7f4e487b7100000000000000000000000000000000000000000000000000000000600052602260045260246000fd5b60006002820490506001821680610d3257607f821691505b602082108103610d4557610d44610ceb565b5b50919050565b60008190508160005260206000209050919050565b60006020601f8301049050919050565b600082821b905092915050565b600060088302610dad7fffffffffffffffffffffffffffffffffffffffffffffffffffffffffffffffff82610d70565b610db78683610d70565b95508019841693508086168417925050509392505050565b6000819050919050565b6000610df4610def610dea84610667565b610dcf565b610667565b9050919050565b6000819050919050565b610e0e83610dd9565b610e22610e1a82610dfb565b848454610d7d565b825550505050565b600090565b610e37610e2a565b610e42818484610e05565b505050565b5b81811015610e6657610e5b600082610e2f565b600181019050610e48565b5050565b601f821115610eab57610e7c81610d4b565b610e8584610d60565b81016020851015610e94578190505b610ea8610ea085610d60565b830182610e47565b50505b505050565b600082821c905092915050565b6000610ece60001984600802610eb0565b1980831691505092915050565b6000610ee78383610ebd565b9150826002028217905092915050565b610f00826106f4565b67ffffffffffffffff811115610f1957610f186107be565b5b610f238254610d1a565b610f2e828285610e6a565b600060209050601f831160018114610f615760008415610f4f578287015190505b610f598582610edb565b865550610fc1565b601f198416610f6f86610d4b565b60005b82811015610f9757848901518255600182019150602085019450602081019050610f72565b86831015610fb45784890151610fb0601f891682610ebd565b8355505b6001600288020188555050505b505050505050565b7f566f74696e6720686173206e6f74207374617274656420796574212121000000600082015250565b6000610fff601d836106ff565b915061100a82610fc9565b602082019050919050565b6000602082019050818103600083015261102e81610ff2565b9050919050565b600061104082610667565b915061104b83610667565b925082820390508181111561106357611062610c74565b5b9291505056fea26469706673582212208953f1ae2951701a0aae11a1567380b7c987218cb309dd7311bc6062fc5825c864736f6c63430008180033",
  "linkReferences": {},
  "deployedLinkReferences": {}
}